{
  "_format": "hh-sol-artifact-1",
  "contractName": "PAPI",
  "sourceName": "contracts/PAPI.sol",
  "abi": [
    {
      "inputs": [
        {
          "internalType": "uint256",
          "name": "_initialSupply",
          "type": "uint256"
        }
      ],
      "stateMutability": "nonpayable",
      "type": "constructor"
    },
    {
      "anonymous": false,
      "inputs": [
        {
          "indexed": true,
          "internalType": "address",
          "name": "owner",
          "type": "address"
        },
        {
          "indexed": true,
          "internalType": "address",
          "name": "spender",
          "type": "address"
        },
        {
          "indexed": false,
          "internalType": "uint256",
          "name": "value",
          "type": "uint256"
        }
      ],
      "name": "Approval",
      "type": "event"
    },
    {
      "anonymous": false,
      "inputs": [
        {
          "indexed": false,
          "internalType": "uint256",
          "name": "taskId",
          "type": "uint256"
        }
      ],
      "name": "DeleteTask",
      "type": "event"
    },
    {
      "anonymous": false,
      "inputs": [
        {
          "indexed": false,
          "internalType": "uint256",
          "name": "taskId",
          "type": "uint256"
        },
        {
          "indexed": false,
          "internalType": "address",
          "name": "takenBy",
          "type": "address"
        },
        {
          "indexed": false,
          "internalType": "uint256",
          "name": "amount",
          "type": "uint256"
        }
      ],
      "name": "PayTask",
      "type": "event"
    },
    {
      "anonymous": false,
      "inputs": [
        {
          "indexed": false,
          "internalType": "address",
          "name": "sender",
          "type": "address"
        },
        {
          "indexed": false,
          "internalType": "address",
          "name": "receiver",
          "type": "address"
        },
        {
          "indexed": false,
          "internalType": "uint256",
          "name": "amount",
          "type": "uint256"
        },
        {
          "indexed": false,
          "internalType": "uint256",
          "name": "timestamp",
          "type": "uint256"
        }
      ],
      "name": "Payment",
      "type": "event"
    },
    {
      "anonymous": false,
      "inputs": [
        {
          "indexed": false,
          "internalType": "address",
          "name": "owner",
          "type": "address"
        },
        {
          "indexed": false,
          "internalType": "uint256",
          "name": "taskId",
          "type": "uint256"
        }
      ],
      "name": "TakeTask",
      "type": "event"
    },
    {
      "anonymous": false,
      "inputs": [
        {
          "indexed": true,
          "internalType": "address",
          "name": "from",
          "type": "address"
        },
        {
          "indexed": true,
          "internalType": "address",
          "name": "to",
          "type": "address"
        },
        {
          "indexed": false,
          "internalType": "uint256",
          "name": "amount",
          "type": "uint256"
        }
      ],
      "name": "Transfer",
      "type": "event"
    },
    {
      "inputs": [
        {
          "internalType": "string",
          "name": "_name",
          "type": "string"
        },
        {
          "internalType": "string",
          "name": "_description",
          "type": "string"
        },
        {
          "internalType": "uint256",
          "name": "_amount",
          "type": "uint256"
        }
      ],
      "name": "addTask",
      "outputs": [],
      "stateMutability": "nonpayable",
      "type": "function"
    },
    {
      "inputs": [
        {
          "internalType": "address",
          "name": "_owner",
          "type": "address"
        },
        {
          "internalType": "address",
          "name": "_spender",
          "type": "address"
        }
      ],
      "name": "allowance",
      "outputs": [
        {
          "internalType": "uint256",
          "name": "",
          "type": "uint256"
        }
      ],
      "stateMutability": "view",
      "type": "function"
    },
    {
      "inputs": [
        {
          "internalType": "address",
          "name": "_spender",
          "type": "address"
        },
        {
          "internalType": "uint256",
          "name": "_amount",
          "type": "uint256"
        }
      ],
      "name": "approve",
      "outputs": [
        {
          "internalType": "bool",
          "name": "",
          "type": "bool"
        }
      ],
      "stateMutability": "nonpayable",
      "type": "function"
    },
    {
      "inputs": [
        {
          "internalType": "address",
          "name": "_account",
          "type": "address"
        }
      ],
      "name": "balanceOf",
      "outputs": [
        {
          "internalType": "uint256",
          "name": "",
          "type": "uint256"
        }
      ],
      "stateMutability": "view",
      "type": "function"
    },
    {
      "inputs": [],
      "name": "decimals",
      "outputs": [
        {
          "internalType": "uint8",
          "name": "",
          "type": "uint8"
        }
      ],
      "stateMutability": "view",
      "type": "function"
    },
    {
      "inputs": [
        {
          "internalType": "uint256",
          "name": "_taskId",
          "type": "uint256"
        }
      ],
      "name": "deleteTask",
      "outputs": [],
      "stateMutability": "payable",
      "type": "function"
    },
    {
      "inputs": [],
      "name": "getAllTasks",
      "outputs": [
        {
          "components": [
            {
              "internalType": "uint256",
              "name": "id",
              "type": "uint256"
            },
            {
              "internalType": "string",
              "name": "name",
              "type": "string"
            },
            {
              "internalType": "string",
              "name": "description",
              "type": "string"
            },
            {
              "internalType": "uint256",
              "name": "amount",
              "type": "uint256"
            },
            {
              "internalType": "address",
              "name": "owner",
              "type": "address"
            },
            {
              "internalType": "bool",
              "name": "isTaken",
              "type": "bool"
            },
            {
              "internalType": "address",
              "name": "takenBy",
              "type": "address"
            },
            {
              "internalType": "uint256",
              "name": "published",
              "type": "uint256"
            }
          ],
          "internalType": "struct ITask.Task[]",
          "name": "",
          "type": "tuple[]"
        }
      ],
      "stateMutability": "view",
      "type": "function"
    },
    {
      "inputs": [],
      "name": "getAllTransactions",
      "outputs": [
        {
          "components": [
            {
              "internalType": "address",
              "name": "sender",
              "type": "address"
            },
            {
              "internalType": "address",
              "name": "receiver",
              "type": "address"
            },
            {
              "internalType": "uint256",
              "name": "amount",
              "type": "uint256"
            },
            {
              "internalType": "uint256",
              "name": "timestamp",
              "type": "uint256"
            }
          ],
          "internalType": "struct ITransaction.Transaction[]",
          "name": "",
          "type": "tuple[]"
        }
      ],
      "stateMutability": "view",
      "type": "function"
    },
    {
      "inputs": [],
      "name": "getTotalSupply",
      "outputs": [
        {
          "internalType": "uint256",
          "name": "",
          "type": "uint256"
        }
      ],
      "stateMutability": "view",
      "type": "function"
    },
    {
      "inputs": [],
      "name": "getTransactionCount",
      "outputs": [
        {
          "internalType": "uint256",
          "name": "",
          "type": "uint256"
        }
      ],
      "stateMutability": "view",
      "type": "function"
    },
    {
      "inputs": [],
      "name": "getWalletTasks",
      "outputs": [
        {
          "components": [
            {
              "internalType": "uint256",
              "name": "id",
              "type": "uint256"
            },
            {
              "internalType": "string",
              "name": "name",
              "type": "string"
            },
            {
              "internalType": "string",
              "name": "description",
              "type": "string"
            },
            {
              "internalType": "uint256",
              "name": "amount",
              "type": "uint256"
            },
            {
              "internalType": "address",
              "name": "owner",
              "type": "address"
            },
            {
              "internalType": "bool",
              "name": "isTaken",
              "type": "bool"
            },
            {
              "internalType": "address",
              "name": "takenBy",
              "type": "address"
            },
            {
              "internalType": "uint256",
              "name": "published",
              "type": "uint256"
            }
          ],
          "internalType": "struct ITask.Task[]",
          "name": "",
          "type": "tuple[]"
        }
      ],
      "stateMutability": "view",
      "type": "function"
    },
    {
      "inputs": [],
      "name": "name",
      "outputs": [
        {
          "internalType": "string",
          "name": "",
          "type": "string"
        }
      ],
      "stateMutability": "view",
      "type": "function"
    },
    {
      "inputs": [
        {
          "internalType": "uint256",
          "name": "_taskId",
          "type": "uint256"
        }
      ],
      "name": "payTask",
      "outputs": [
        {
          "internalType": "bool",
          "name": "",
          "type": "bool"
        }
      ],
      "stateMutability": "payable",
      "type": "function"
    },
    {
      "inputs": [],
      "name": "symbol",
      "outputs": [
        {
          "internalType": "string",
          "name": "",
          "type": "string"
        }
      ],
      "stateMutability": "view",
      "type": "function"
    },
    {
      "inputs": [
        {
          "internalType": "address",
          "name": "_owner",
          "type": "address"
        },
        {
          "internalType": "uint256",
          "name": "_taskId",
          "type": "uint256"
        }
      ],
      "name": "takeTask",
      "outputs": [
        {
          "internalType": "bool",
          "name": "",
          "type": "bool"
        }
      ],
      "stateMutability": "nonpayable",
      "type": "function"
    },
    {
      "inputs": [
        {
          "internalType": "address",
          "name": "_receiver",
          "type": "address"
        },
        {
          "internalType": "uint256",
          "name": "_amount",
          "type": "uint256"
        }
      ],
      "name": "transfer",
      "outputs": [
        {
          "internalType": "bool",
          "name": "",
          "type": "bool"
        }
      ],
      "stateMutability": "nonpayable",
      "type": "function"
    },
    {
      "inputs": [
        {
          "internalType": "address",
          "name": "_owner",
          "type": "address"
        },
        {
          "internalType": "address",
          "name": "_receiver",
          "type": "address"
        },
        {
          "internalType": "uint256",
          "name": "_amount",
          "type": "uint256"
        }
      ],
      "name": "transferFrom",
      "outputs": [
        {
          "internalType": "bool",
          "name": "",
          "type": "bool"
        }
      ],
      "stateMutability": "nonpayable",
      "type": "function"
    }
  ],
  "bytecode": "0x6080604052600080553480156200001557600080fd5b50604051620041273803806200412783398181016040528101906200003b9190620000cf565b80600181905550600154600560003373ffffffffffffffffffffffffffffffffffffffff1673ffffffffffffffffffffffffffffffffffffffff168152602001908152602001600020819055505062000101565b600080fd5b6000819050919050565b620000a98162000094565b8114620000b557600080fd5b50565b600081519050620000c9816200009e565b92915050565b600060208284031215620000e857620000e76200008f565b5b6000620000f884828501620000b8565b91505092915050565b61401680620001116000396000f3fe6080604052600436106100fe5760003560e01c806370a08231116100955780637fc22558116100645780637fc225581461034357806395d89b411461036e578063a9059cbb14610399578063c4e41b22146103d6578063dd62ed3e14610401576100fe565b806370a08231146102755780637783ec3f146102b2578063779900b4146102ef5780637cbc9ae91461031a576100fe565b806327506f53116100d157806327506f53146101d85780632e7700f014610203578063313ce5671461022e578063560f319214610259576100fe565b806306fdde0314610103578063095ea7b31461012e57806323b872dd1461016b5780632508402c146101a8575b600080fd5b34801561010f57600080fd5b5061011861043e565b6040516101259190612f01565b60405180910390f35b34801561013a57600080fd5b5061015560048036038101906101509190612fcb565b610477565b6040516101629190613026565b60405180910390f35b34801561017757600080fd5b50610192600480360381019061018d9190613041565b61057b565b60405161019f9190613026565b60405180910390f35b6101c260048036038101906101bd9190613094565b610877565b6040516101cf9190613026565b60405180910390f35b3480156101e457600080fd5b506101ed6110b3565b6040516101fa91906131e3565b60405180910390f35b34801561020f57600080fd5b506102186111d2565b6040516102259190613214565b60405180910390f35b34801561023a57600080fd5b506102436111dc565b604051610250919061324b565b60405180910390f35b610273600480360381019061026e9190613094565b6111e1565b005b34801561028157600080fd5b5061029c60048036038101906102979190613266565b611ed5565b6040516102a99190613214565b60405180910390f35b3480156102be57600080fd5b506102d960048036038101906102d49190612fcb565b611f1e565b6040516102e69190613026565b60405180910390f35b3480156102fb57600080fd5b50610304612190565b6040516103119190613465565b60405180910390f35b34801561032657600080fd5b50610341600480360381019061033c91906135bc565b6123f9565b005b34801561034f57600080fd5b50610358612791565b6040516103659190613465565b60405180910390f35b34801561037a57600080fd5b50610383612a37565b6040516103909190612f01565b60405180910390f35b3480156103a557600080fd5b506103c060048036038101906103bb9190612fcb565b612a70565b6040516103cd9190613026565b60405180910390f35b3480156103e257600080fd5b506103eb612c13565b6040516103f89190613214565b60405180910390f35b34801561040d57600080fd5b5061042860048036038101906104239190613647565b612c1d565b6040516104359190613214565b60405180910390f35b6040518060400160405280600a81526020017f5041504920546f6b656e0000000000000000000000000000000000000000000081525081565b600081600660003373ffffffffffffffffffffffffffffffffffffffff1673ffffffffffffffffffffffffffffffffffffffff16815260200190815260200160002060008573ffffffffffffffffffffffffffffffffffffffff1673ffffffffffffffffffffffffffffffffffffffff168152602001908152602001600020600082825461050591906136b6565b925050819055508273ffffffffffffffffffffffffffffffffffffffff163373ffffffffffffffffffffffffffffffffffffffff167f8c5be1e5ebec7d5bd14f71427d1e84f3dd0314c0f7b2291e5b200ac8c7c3b925846040516105699190613214565b60405180910390a36001905092915050565b60003382600560008373ffffffffffffffffffffffffffffffffffffffff1673ffffffffffffffffffffffffffffffffffffffff16815260200190815260200160002054811115610601576040517f08c379a00000000000000000000000000000000000000000000000000000000081526004016105f89061375c565b60405180910390fd5b853385600660008473ffffffffffffffffffffffffffffffffffffffff1673ffffffffffffffffffffffffffffffffffffffff16815260200190815260200160002060008373ffffffffffffffffffffffffffffffffffffffff1673ffffffffffffffffffffffffffffffffffffffff168152602001908152602001600020548111156106c3576040517f08c379a00000000000000000000000000000000000000000000000000000000081526004016106ba906137c8565b60405180910390fd5b86600560008b73ffffffffffffffffffffffffffffffffffffffff1673ffffffffffffffffffffffffffffffffffffffff168152602001908152602001600020600082825461071291906137e8565b9250508190555086600660008b73ffffffffffffffffffffffffffffffffffffffff1673ffffffffffffffffffffffffffffffffffffffff16815260200190815260200160002060003373ffffffffffffffffffffffffffffffffffffffff1673ffffffffffffffffffffffffffffffffffffffff16815260200190815260200160002060008282546107a591906137e8565b9250508190555086600560008a73ffffffffffffffffffffffffffffffffffffffff1673ffffffffffffffffffffffffffffffffffffffff16815260200190815260200160002060008282546107fb91906136b6565b925050819055508773ffffffffffffffffffffffffffffffffffffffff168973ffffffffffffffffffffffffffffffffffffffff167fddf252ad1be2c89b69c2b068fc378daa952ba7f163c4a11628f55a4df523b3ef8960405161085f9190613214565b60405180910390a36001955050505050509392505050565b6000338260006108878383612ca4565b60405180610100016040529081600082015481526020016001820180546108ad9061384b565b80601f01602080910402602001604051908101604052809291908181526020018280546108d99061384b565b80156109265780601f106108fb57610100808354040283529160200191610926565b820191906000526020600020905b81548152906001019060200180831161090957829003601f168201915b5050505050815260200160028201805461093f9061384b565b80601f016020809104026020016040519081016040528092919081815260200182805461096b9061384b565b80156109b85780601f1061098d576101008083540402835291602001916109b8565b820191906000526020600020905b81548152906001019060200180831161099b57829003601f168201915b50505050508152602001600382015481526020016004820160009054906101000a900473ffffffffffffffffffffffffffffffffffffffff1673ffffffffffffffffffffffffffffffffffffffff1673ffffffffffffffffffffffffffffffffffffffff1681526020016004820160149054906101000a900460ff161515151581526020016005820160009054906101000a900473ffffffffffffffffffffffffffffffffffffffff1673ffffffffffffffffffffffffffffffffffffffff1673ffffffffffffffffffffffffffffffffffffffff1681526020016006820154815250509050600115158160a001511515148015610ae75750600073ffffffffffffffffffffffffffffffffffffffff168160c0015173ffffffffffffffffffffffffffffffffffffffff1614155b610b26576040517f08c379a0000000000000000000000000000000000000000000000000000000008152600401610b1d906138c8565b60405180910390fd5b600560003373ffffffffffffffffffffffffffffffffffffffff1673ffffffffffffffffffffffffffffffffffffffff1681526020019081526020016000205481606001511115610bac576040517f08c379a0000000000000000000000000000000000000000000000000000000008152600401610ba39061395a565b60405180910390fd5b6000610bb83387612ca4565b6040518061010001604052908160008201548152602001600182018054610bde9061384b565b80601f0160208091040260200160405190810160405280929190818152602001828054610c0a9061384b565b8015610c575780601f10610c2c57610100808354040283529160200191610c57565b820191906000526020600020905b815481529060010190602001808311610c3a57829003601f168201915b50505050508152602001600282018054610c709061384b565b80601f0160208091040260200160405190810160405280929190818152602001828054610c9c9061384b565b8015610ce95780601f10610cbe57610100808354040283529160200191610ce9565b820191906000526020600020905b815481529060010190602001808311610ccc57829003601f168201915b50505050508152602001600382015481526020016004820160009054906101000a900473ffffffffffffffffffffffffffffffffffffffff1673ffffffffffffffffffffffffffffffffffffffff1673ffffffffffffffffffffffffffffffffffffffff1681526020016004820160149054906101000a900460ff161515151581526020016005820160009054906101000a900473ffffffffffffffffffffffffffffffffffffffff1673ffffffffffffffffffffffffffffffffffffffff1673ffffffffffffffffffffffffffffffffffffffff168152602001600682015481525050905060008160c00151905060008260600151905080600560003373ffffffffffffffffffffffffffffffffffffffff1673ffffffffffffffffffffffffffffffffffffffff1681526020019081526020016000206000828254610e3091906137e8565b9250508190555080600560008473ffffffffffffffffffffffffffffffffffffffff1673ffffffffffffffffffffffffffffffffffffffff1681526020019081526020016000206000828254610e8691906136b6565b925050819055503073ffffffffffffffffffffffffffffffffffffffff1663560f3192896040518263ffffffff1660e01b8152600401610ec69190613214565b600060405180830381600087803b158015610ee057600080fd5b505af1158015610ef4573d6000803e3d6000fd5b50505050600460405180608001604052803373ffffffffffffffffffffffffffffffffffffffff1681526020018473ffffffffffffffffffffffffffffffffffffffff16815260200183815260200142815250908060018154018082558091505060019003906000526020600020906004020160009091909190915060008201518160000160006101000a81548173ffffffffffffffffffffffffffffffffffffffff021916908373ffffffffffffffffffffffffffffffffffffffff16021790555060208201518160010160006101000a81548173ffffffffffffffffffffffffffffffffffffffff021916908373ffffffffffffffffffffffffffffffffffffffff16021790555060408201518160020155606082015181600301555050600260008154809291906110279061397a565b91905055507f8e21cc43764f467130c5e0ed89be44e37030d722169f58753f693cfcc33934cf88838360405161105f939291906139d1565b60405180910390a17f10258bfd896826cf69e885380049b1d1be0424a813d5117744373ec9f51bc86c3383834260405161109c9493929190613a08565b60405180910390a160019650505050505050919050565b60606004805480602002602001604051908101604052809291908181526020016000905b828210156111c957838290600052602060002090600402016040518060800160405290816000820160009054906101000a900473ffffffffffffffffffffffffffffffffffffffff1673ffffffffffffffffffffffffffffffffffffffff1673ffffffffffffffffffffffffffffffffffffffff1681526020016001820160009054906101000a900473ffffffffffffffffffffffffffffffffffffffff1673ffffffffffffffffffffffffffffffffffffffff1673ffffffffffffffffffffffffffffffffffffffff16815260200160028201548152602001600382015481525050815260200190600101906110d7565b50505050905090565b6000600254905090565b600681565b6111e9612da1565b6000600760003273ffffffffffffffffffffffffffffffffffffffff1673ffffffffffffffffffffffffffffffffffffffff168152602001908152602001600020905060005b60038054905081101561184857836003828154811061125157611250613a4d565b5b90600052602060002090600702016000015403611835576003818154811061127c5761127b613a4d565b5b906000526020600020906007020160405180610100016040529081600082015481526020016001820180546112b09061384b565b80601f01602080910402602001604051908101604052809291908181526020018280546112dc9061384b565b80156113295780601f106112fe57610100808354040283529160200191611329565b820191906000526020600020905b81548152906001019060200180831161130c57829003601f168201915b505050505081526020016002820180546113429061384b565b80601f016020809104026020016040519081016040528092919081815260200182805461136e9061384b565b80156113bb5780601f10611390576101008083540402835291602001916113bb565b820191906000526020600020905b81548152906001019060200180831161139e57829003601f168201915b50505050508152602001600382015481526020016004820160009054906101000a900473ffffffffffffffffffffffffffffffffffffffff1673ffffffffffffffffffffffffffffffffffffffff1673ffffffffffffffffffffffffffffffffffffffff1681526020016004820160149054906101000a900460ff161515151581526020016005820160009054906101000a900473ffffffffffffffffffffffffffffffffffffffff1673ffffffffffffffffffffffffffffffffffffffff1673ffffffffffffffffffffffffffffffffffffffff1681526020016006820154815250509250600360016003805490506114b591906137e8565b815481106114c6576114c5613a4d565b5b9060005260206000209060070201600382815481106114e8576114e7613a4d565b5b906000526020600020906007020160008201548160000155600182018160010190816115149190613c3e565b50600282018160020190816115299190613c3e565b50600382015481600301556004820160009054906101000a900473ffffffffffffffffffffffffffffffffffffffff168160040160006101000a81548173ffffffffffffffffffffffffffffffffffffffff021916908373ffffffffffffffffffffffffffffffffffffffff1602179055506004820160149054906101000a900460ff168160040160146101000a81548160ff0219169083151502179055506005820160009054906101000a900473ffffffffffffffffffffffffffffffffffffffff168160050160006101000a81548173ffffffffffffffffffffffffffffffffffffffff021916908373ffffffffffffffffffffffffffffffffffffffff16021790555060068201548160060155905050826003600160038054905061165191906137e8565b8154811061166257611661613a4d565b5b906000526020600020906007020160008201518160000155602082015181600101908161168f9190613d26565b5060408201518160020190816116a59190613d26565b506060820151816003015560808201518160040160006101000a81548173ffffffffffffffffffffffffffffffffffffffff021916908373ffffffffffffffffffffffffffffffffffffffff16021790555060a08201518160040160146101000a81548160ff02191690831515021790555060c08201518160050160006101000a81548173ffffffffffffffffffffffffffffffffffffffff021916908373ffffffffffffffffffffffffffffffffffffffff16021790555060e08201518160060155905050600380548061177d5761177c613df8565b5b60019003818190600052602060002090600702016000808201600090556001820160006117aa9190612e14565b6002820160006117ba9190612e14565b60038201600090556004820160006101000a81549073ffffffffffffffffffffffffffffffffffffffff02191690556004820160146101000a81549060ff02191690556005820160006101000a81549073ffffffffffffffffffffffffffffffffffffffff0219169055600682016000905550509055611848565b80806118409061397a565b91505061122f565b5060005b8180549050811015611e96578382828154811061186c5761186b613a4d565b5b90600052602060002090600702016000015403611e835781818154811061189657611895613a4d565b5b906000526020600020906007020160405180610100016040529081600082015481526020016001820180546118ca9061384b565b80601f01602080910402602001604051908101604052809291908181526020018280546118f69061384b565b80156119435780601f1061191857610100808354040283529160200191611943565b820191906000526020600020905b81548152906001019060200180831161192657829003601f168201915b5050505050815260200160028201805461195c9061384b565b80601f01602080910402602001604051908101604052809291908181526020018280546119889061384b565b80156119d55780601f106119aa576101008083540402835291602001916119d5565b820191906000526020600020905b8154815290600101906020018083116119b857829003601f168201915b50505050508152602001600382015481526020016004820160009054906101000a900473ffffffffffffffffffffffffffffffffffffffff1673ffffffffffffffffffffffffffffffffffffffff1673ffffffffffffffffffffffffffffffffffffffff1681526020016004820160149054906101000a900460ff161515151581526020016005820160009054906101000a900473ffffffffffffffffffffffffffffffffffffffff1673ffffffffffffffffffffffffffffffffffffffff1673ffffffffffffffffffffffffffffffffffffffff16815260200160068201548152505092508160018380549050611acd91906137e8565b81548110611ade57611add613a4d565b5b9060005260206000209060070201828281548110611aff57611afe613a4d565b5b90600052602060002090600702016000820154816000015560018201816001019081611b2b9190613c3e565b5060028201816002019081611b409190613c3e565b50600382015481600301556004820160009054906101000a900473ffffffffffffffffffffffffffffffffffffffff168160040160006101000a81548173ffffffffffffffffffffffffffffffffffffffff021916908373ffffffffffffffffffffffffffffffffffffffff1602179055506004820160149054906101000a900460ff168160040160146101000a81548160ff0219169083151502179055506005820160009054906101000a900473ffffffffffffffffffffffffffffffffffffffff168160050160006101000a81548173ffffffffffffffffffffffffffffffffffffffff021916908373ffffffffffffffffffffffffffffffffffffffff16021790555060068201548160060155905050828260018480549050611c6691906137e8565b81548110611c7757611c76613a4d565b5b9060005260206000209060070201600082015181600001556020820151816001019081611ca49190613d26565b506040820151816002019081611cba9190613d26565b506060820151816003015560808201518160040160006101000a81548173ffffffffffffffffffffffffffffffffffffffff021916908373ffffffffffffffffffffffffffffffffffffffff16021790555060a08201518160040160146101000a81548160ff02191690831515021790555060c08201518160050160006101000a81548173ffffffffffffffffffffffffffffffffffffffff021916908373ffffffffffffffffffffffffffffffffffffffff16021790555060e0820151816006015590505081805480611d9157611d90613df8565b5b6001900381819060005260206000209060070201600080820160009055600182016000611dbe9190612e14565b600282016000611dce9190612e14565b60038201600090556004820160006101000a81549073ffffffffffffffffffffffffffffffffffffffff02191690556004820160146101000a81549060ff02191690556005820160006101000a81549073ffffffffffffffffffffffffffffffffffffffff02191690556006820160009055505090557f8c2dccd1e8cc953301e21aa9acd0c9c15ed4464a558ed394b00c243d523eb53884604051611e739190613214565b60405180910390a1505050611ed2565b8080611e8e9061397a565b91505061184c565b506040517f08c379a0000000000000000000000000000000000000000000000000000000008152600401611ec990613e99565b60405180910390fd5b50565b6000600560008373ffffffffffffffffffffffffffffffffffffffff1673ffffffffffffffffffffffffffffffffffffffff168152602001908152602001600020549050919050565b600082826000611f2e8383612ca4565b9050600015158160040160149054906101000a900460ff161515148015611fa55750600073ffffffffffffffffffffffffffffffffffffffff168160050160009054906101000a900473ffffffffffffffffffffffffffffffffffffffff1673ffffffffffffffffffffffffffffffffffffffff16145b611fe4576040517f08c379a0000000000000000000000000000000000000000000000000000000008152600401611fdb90613f05565b60405180910390fd5b6000611ff08787612ca4565b905060005b6003805490508110156120e85781600001546003828154811061201b5761201a613a4d565b5b906000526020600020906007020160000154036120d55760016003828154811061204857612047613a4d565b5b906000526020600020906007020160040160146101000a81548160ff021916908315150217905550326003828154811061208557612084613a4d565b5b906000526020600020906007020160050160006101000a81548173ffffffffffffffffffffffffffffffffffffffff021916908373ffffffffffffffffffffffffffffffffffffffff1602179055505b80806120e09061397a565b915050611ff5565b5060018160040160146101000a81548160ff021916908315150217905550328160050160006101000a81548173ffffffffffffffffffffffffffffffffffffffff021916908373ffffffffffffffffffffffffffffffffffffffff1602179055507ff9c6c66636e635c04970d2129147d4d0297a2aea3af7d163c03348614b6fcd14878760405161217a929190613f25565b60405180910390a1600194505050505092915050565b60606003805480602002602001604051908101604052809291908181526020016000905b828210156123f0578382906000526020600020906007020160405180610100016040529081600082015481526020016001820180546121f29061384b565b80601f016020809104026020016040519081016040528092919081815260200182805461221e9061384b565b801561226b5780601f106122405761010080835404028352916020019161226b565b820191906000526020600020905b81548152906001019060200180831161224e57829003601f168201915b505050505081526020016002820180546122849061384b565b80601f01602080910402602001604051908101604052809291908181526020018280546122b09061384b565b80156122fd5780601f106122d2576101008083540402835291602001916122fd565b820191906000526020600020905b8154815290600101906020018083116122e057829003601f168201915b50505050508152602001600382015481526020016004820160009054906101000a900473ffffffffffffffffffffffffffffffffffffffff1673ffffffffffffffffffffffffffffffffffffffff1673ffffffffffffffffffffffffffffffffffffffff1681526020016004820160149054906101000a900460ff161515151581526020016005820160009054906101000a900473ffffffffffffffffffffffffffffffffffffffff1673ffffffffffffffffffffffffffffffffffffffff1673ffffffffffffffffffffffffffffffffffffffff168152602001600682015481525050815260200190600101906121b4565b50505050905090565b3381600560008373ffffffffffffffffffffffffffffffffffffffff1673ffffffffffffffffffffffffffffffffffffffff1681526020019081526020016000205481111561247d576040517f08c379a00000000000000000000000000000000000000000000000000000000081526004016124749061375c565b60405180910390fd5b600060405180610100016040528060008081548092919061249d9061397a565b9190505581526020018781526020018681526020018581526020013373ffffffffffffffffffffffffffffffffffffffff168152602001600015158152602001600073ffffffffffffffffffffffffffffffffffffffff168152602001428152509050600760003373ffffffffffffffffffffffffffffffffffffffff1673ffffffffffffffffffffffffffffffffffffffff1681526020019081526020016000208190806001815401808255809150506001900390600052602060002090600702016000909190919091506000820151816000015560208201518160010190816125889190613d26565b50604082015181600201908161259e9190613d26565b506060820151816003015560808201518160040160006101000a81548173ffffffffffffffffffffffffffffffffffffffff021916908373ffffffffffffffffffffffffffffffffffffffff16021790555060a08201518160040160146101000a81548160ff02191690831515021790555060c08201518160050160006101000a81548173ffffffffffffffffffffffffffffffffffffffff021916908373ffffffffffffffffffffffffffffffffffffffff16021790555060e08201518160060155505060038190806001815401808255809150506001900390600052602060002090600702016000909190919091506000820151816000015560208201518160010190816126ae9190613d26565b5060408201518160020190816126c49190613d26565b506060820151816003015560808201518160040160006101000a81548173ffffffffffffffffffffffffffffffffffffffff021916908373ffffffffffffffffffffffffffffffffffffffff16021790555060a08201518160040160146101000a81548160ff02191690831515021790555060c08201518160050160006101000a81548173ffffffffffffffffffffffffffffffffffffffff021916908373ffffffffffffffffffffffffffffffffffffffff16021790555060e082015181600601555050505050505050565b6060600760003373ffffffffffffffffffffffffffffffffffffffff1673ffffffffffffffffffffffffffffffffffffffff168152602001908152602001600020805480602002602001604051908101604052809291908181526020016000905b82821015612a2e578382906000526020600020906007020160405180610100016040529081600082015481526020016001820180546128309061384b565b80601f016020809104026020016040519081016040528092919081815260200182805461285c9061384b565b80156128a95780601f1061287e576101008083540402835291602001916128a9565b820191906000526020600020905b81548152906001019060200180831161288c57829003601f168201915b505050505081526020016002820180546128c29061384b565b80601f01602080910402602001604051908101604052809291908181526020018280546128ee9061384b565b801561293b5780601f106129105761010080835404028352916020019161293b565b820191906000526020600020905b81548152906001019060200180831161291e57829003601f168201915b50505050508152602001600382015481526020016004820160009054906101000a900473ffffffffffffffffffffffffffffffffffffffff1673ffffffffffffffffffffffffffffffffffffffff1673ffffffffffffffffffffffffffffffffffffffff1681526020016004820160149054906101000a900460ff161515151581526020016005820160009054906101000a900473ffffffffffffffffffffffffffffffffffffffff1673ffffffffffffffffffffffffffffffffffffffff1673ffffffffffffffffffffffffffffffffffffffff168152602001600682015481525050815260200190600101906127f2565b50505050905090565b6040518060400160405280600481526020017f504150490000000000000000000000000000000000000000000000000000000081525081565b60003282600560008373ffffffffffffffffffffffffffffffffffffffff1673ffffffffffffffffffffffffffffffffffffffff16815260200190815260200160002054811115612af6576040517f08c379a0000000000000000000000000000000000000000000000000000000008152600401612aed9061375c565b60405180910390fd5b83600560003273ffffffffffffffffffffffffffffffffffffffff1673ffffffffffffffffffffffffffffffffffffffff1681526020019081526020016000206000828254612b4591906137e8565b9250508190555083600560008773ffffffffffffffffffffffffffffffffffffffff1673ffffffffffffffffffffffffffffffffffffffff1681526020019081526020016000206000828254612b9b91906136b6565b925050819055508473ffffffffffffffffffffffffffffffffffffffff163373ffffffffffffffffffffffffffffffffffffffff167fddf252ad1be2c89b69c2b068fc378daa952ba7f163c4a11628f55a4df523b3ef86604051612bff9190613214565b60405180910390a360019250505092915050565b6000600154905090565b6000600660008473ffffffffffffffffffffffffffffffffffffffff1673ffffffffffffffffffffffffffffffffffffffff16815260200190815260200160002060008373ffffffffffffffffffffffffffffffffffffffff1673ffffffffffffffffffffffffffffffffffffffff16815260200190815260200160002054905092915050565b600080600760008573ffffffffffffffffffffffffffffffffffffffff1673ffffffffffffffffffffffffffffffffffffffff168152602001908152602001600020905060005b8180549050811015612d5f5783828281548110612d0b57612d0a613a4d565b5b90600052602060002090600702016000015403612d4c57818181548110612d3557612d34613a4d565b5b906000526020600020906007020192505050612d9b565b8080612d579061397a565b915050612ceb565b506040517f08c379a0000000000000000000000000000000000000000000000000000000008152600401612d9290613fc0565b60405180910390fd5b92915050565b60405180610100016040528060008152602001606081526020016060815260200160008152602001600073ffffffffffffffffffffffffffffffffffffffff168152602001600015158152602001600073ffffffffffffffffffffffffffffffffffffffff168152602001600081525090565b508054612e209061384b565b6000825580601f10612e325750612e51565b601f016020900490600052602060002090810190612e509190612e54565b5b50565b5b80821115612e6d576000816000905550600101612e55565b5090565b600081519050919050565b600082825260208201905092915050565b60005b83811015612eab578082015181840152602081019050612e90565b60008484015250505050565b6000601f19601f8301169050919050565b6000612ed382612e71565b612edd8185612e7c565b9350612eed818560208601612e8d565b612ef681612eb7565b840191505092915050565b60006020820190508181036000830152612f1b8184612ec8565b905092915050565b6000604051905090565b600080fd5b600080fd5b600073ffffffffffffffffffffffffffffffffffffffff82169050919050565b6000612f6282612f37565b9050919050565b612f7281612f57565b8114612f7d57600080fd5b50565b600081359050612f8f81612f69565b92915050565b6000819050919050565b612fa881612f95565b8114612fb357600080fd5b50565b600081359050612fc581612f9f565b92915050565b60008060408385031215612fe257612fe1612f2d565b5b6000612ff085828601612f80565b925050602061300185828601612fb6565b9150509250929050565b60008115159050919050565b6130208161300b565b82525050565b600060208201905061303b6000830184613017565b92915050565b60008060006060848603121561305a57613059612f2d565b5b600061306886828701612f80565b935050602061307986828701612f80565b925050604061308a86828701612fb6565b9150509250925092565b6000602082840312156130aa576130a9612f2d565b5b60006130b884828501612fb6565b91505092915050565b600081519050919050565b600082825260208201905092915050565b6000819050602082019050919050565b6130f681612f57565b82525050565b61310581612f95565b82525050565b60808201600082015161312160008501826130ed565b50602082015161313460208501826130ed565b50604082015161314760408501826130fc565b50606082015161315a60608501826130fc565b50505050565b600061316c838361310b565b60808301905092915050565b6000602082019050919050565b6000613190826130c1565b61319a81856130cc565b93506131a5836130dd565b8060005b838110156131d65781516131bd8882613160565b97506131c883613178565b9250506001810190506131a9565b5085935050505092915050565b600060208201905081810360008301526131fd8184613185565b905092915050565b61320e81612f95565b82525050565b60006020820190506132296000830184613205565b92915050565b600060ff82169050919050565b6132458161322f565b82525050565b6000602082019050613260600083018461323c565b92915050565b60006020828403121561327c5761327b612f2d565b5b600061328a84828501612f80565b91505092915050565b600081519050919050565b600082825260208201905092915050565b6000819050602082019050919050565b600082825260208201905092915050565b60006132db82612e71565b6132e581856132bf565b93506132f5818560208601612e8d565b6132fe81612eb7565b840191505092915050565b6133128161300b565b82525050565b60006101008301600083015161333160008601826130fc565b506020830151848203602086015261334982826132d0565b9150506040830151848203604086015261336382826132d0565b915050606083015161337860608601826130fc565b50608083015161338b60808601826130ed565b5060a083015161339e60a0860182613309565b5060c08301516133b160c08601826130ed565b5060e08301516133c460e08601826130fc565b508091505092915050565b60006133db8383613318565b905092915050565b6000602082019050919050565b60006133fb82613293565b613405818561329e565b935083602082028501613417856132af565b8060005b85811015613453578484038952815161343485826133cf565b945061343f836133e3565b925060208a0199505060018101905061341b565b50829750879550505050505092915050565b6000602082019050818103600083015261347f81846133f0565b905092915050565b600080fd5b600080fd5b7f4e487b7100000000000000000000000000000000000000000000000000000000600052604160045260246000fd5b6134c982612eb7565b810181811067ffffffffffffffff821117156134e8576134e7613491565b5b80604052505050565b60006134fb612f23565b905061350782826134c0565b919050565b600067ffffffffffffffff82111561352757613526613491565b5b61353082612eb7565b9050602081019050919050565b82818337600083830152505050565b600061355f61355a8461350c565b6134f1565b90508281526020810184848401111561357b5761357a61348c565b5b61358684828561353d565b509392505050565b600082601f8301126135a3576135a2613487565b5b81356135b384826020860161354c565b91505092915050565b6000806000606084860312156135d5576135d4612f2d565b5b600084013567ffffffffffffffff8111156135f3576135f2612f32565b5b6135ff8682870161358e565b935050602084013567ffffffffffffffff8111156136205761361f612f32565b5b61362c8682870161358e565b925050604061363d86828701612fb6565b9150509250925092565b6000806040838503121561365e5761365d612f2d565b5b600061366c85828601612f80565b925050602061367d85828601612f80565b9150509250929050565b7f4e487b7100000000000000000000000000000000000000000000000000000000600052601160045260246000fd5b60006136c182612f95565b91506136cc83612f95565b92508282019050808211156136e4576136e3613687565b5b92915050565b7f5468652077616c6c657420646f65736e2774206861766520656e6f756768207460008201527f6f6b656e73000000000000000000000000000000000000000000000000000000602082015250565b6000613746602583612e7c565b9150613751826136ea565b604082019050919050565b6000602082019050818103600083015261377581613739565b9050919050565b7f596f7520646f6e2774206861766520656e6f75676820616c6c6f77616e636500600082015250565b60006137b2601f83612e7c565b91506137bd8261377c565b602082019050919050565b600060208201905081810360008301526137e1816137a5565b9050919050565b60006137f382612f95565b91506137fe83612f95565b925082820390508181111561381657613815613687565b5b92915050565b7f4e487b7100000000000000000000000000000000000000000000000000000000600052602260045260246000fd5b6000600282049050600182168061386357607f821691505b6020821081036138765761387561381c565b5b50919050565b7f5461736b206973206e6f742061737369676e6564000000000000000000000000600082015250565b60006138b2601483612e7c565b91506138bd8261387c565b602082019050919050565b600060208201905081810360008301526138e1816138a5565b9050919050565b7f4e6f7420656e6f75676820746f6b656e7320746f2070617920666f722074617360008201527f6b00000000000000000000000000000000000000000000000000000000000000602082015250565b6000613944602183612e7c565b915061394f826138e8565b604082019050919050565b6000602082019050818103600083015261397381613937565b9050919050565b600061398582612f95565b91507fffffffffffffffffffffffffffffffffffffffffffffffffffffffffffffffff82036139b7576139b6613687565b5b600182019050919050565b6139cb81612f57565b82525050565b60006060820190506139e66000830186613205565b6139f360208301856139c2565b613a006040830184613205565b949350505050565b6000608082019050613a1d60008301876139c2565b613a2a60208301866139c2565b613a376040830185613205565b613a446060830184613205565b95945050505050565b7f4e487b7100000000000000000000000000000000000000000000000000000000600052603260045260246000fd5b600081549050613a8b8161384b565b9050919050565b60008190508160005260206000209050919050565b60006020601f8301049050919050565b600082821b905092915050565b600060088302613af47fffffffffffffffffffffffffffffffffffffffffffffffffffffffffffffffff82613ab7565b613afe8683613ab7565b95508019841693508086168417925050509392505050565b6000819050919050565b6000613b3b613b36613b3184612f95565b613b16565b612f95565b9050919050565b6000819050919050565b613b5583613b20565b613b69613b6182613b42565b848454613ac4565b825550505050565b600090565b613b7e613b71565b613b89818484613b4c565b505050565b5b81811015613bad57613ba2600082613b76565b600181019050613b8f565b5050565b601f821115613bf257613bc381613a92565b613bcc84613aa7565b81016020851015613bdb578190505b613bef613be785613aa7565b830182613b8e565b50505b505050565b600082821c905092915050565b6000613c1560001984600802613bf7565b1980831691505092915050565b6000613c2e8383613c04565b9150826002028217905092915050565b818103613c4c575050613d24565b613c5582613a7c565b67ffffffffffffffff811115613c6e57613c6d613491565b5b613c78825461384b565b613c83828285613bb1565b6000601f831160018114613cb25760008415613ca0578287015490505b613caa8582613c22565b865550613d1d565b601f198416613cc087613a92565b9650613ccb86613a92565b60005b82811015613cf357848901548255600182019150600185019450602081019050613cce565b86831015613d105784890154613d0c601f891682613c04565b8355505b6001600288020188555050505b5050505050505b565b613d2f82612e71565b67ffffffffffffffff811115613d4857613d47613491565b5b613d52825461384b565b613d5d828285613bb1565b600060209050601f831160018114613d905760008415613d7e578287015190505b613d888582613c22565b865550613df0565b601f198416613d9e86613a92565b60005b82811015613dc657848901518255600182019150602085019450602081019050613da1565b86831015613de35784890151613ddf601f891682613c04565b8355505b6001600288020188555050505b505050505050565b7f4e487b7100000000000000000000000000000000000000000000000000000000600052603160045260246000fd5b7f4164647265737320646f65736e27742068617665207461736b2077697468207060008201527f726f766964656420696400000000000000000000000000000000000000000000602082015250565b6000613e83602a83612e7c565b9150613e8e82613e27565b604082019050919050565b60006020820190508181036000830152613eb281613e76565b9050919050565b7f5461736b20697320616c72656164792074616b656e0000000000000000000000600082015250565b6000613eef601583612e7c565b9150613efa82613eb9565b602082019050919050565b60006020820190508181036000830152613f1e81613ee2565b9050919050565b6000604082019050613f3a60008301856139c2565b613f476020830184613205565b9392505050565b7f5461736b20776974682070726f766964656420696420636f756c64206e6f742060008201527f626520666f756e64000000000000000000000000000000000000000000000000602082015250565b6000613faa602883612e7c565b9150613fb582613f4e565b604082019050919050565b60006020820190508181036000830152613fd981613f9d565b905091905056fea2646970667358221220721baf56feed01c57f6b63b6ff47ae84422b1a36fd788d7220c656ca34f479de64736f6c63430008120033",
  "linkReferences": {},
  "deployedLinkReferences": {}
}